:020000040800F2
:103000004806002045310008075B00082734000807
:10301000055B0008953200083561000800000000DB
:10302000000000000000000000000000C55C000877
:103030009732000800000000B95B0008895D0008B5
:103040005F3100085F3100085F3100085F31000820
:103050005F3100085F3100085F3100085F31000810
:103060005F3100085F3100085F3100085F31000800
:103070005F3100085F3100085F3100085F310008F0
:103080005F3100085F3100085F3100085F310008E0
:103090005F3100085F3100085F3100085F310008D0
:1030A0005F3100085F3100085F3100085F310008C0
:1030B000DD5D00085F3100085F3100085F31000806
:1030C0005F3100085F3100085F3100085F310008A0
:1030D0005F310008255F00085F3100085F3100089C
:1030E0005F3100085F3100085F3100085F31000880
:1030F0005F3100085F3100085F3100085F31000870
:103100005F3100085F3100085F3100085F3100085F
:103110005F3100085F3100085F3100085F3100084F
:103120005F3100085F3100085F3100085F3100083F
:10313000DFF80CD000F04AF800480047C5690008E5
:10314000480600200648804706480047FEE7FEE79D
:10315000FEE7FEE7FEE7FEE7FEE7FEE7FEE7FEE747
:103160008D5D0008313100082DE9F05F0546002033
:1031700092469B4688460646814640241BE02846E8
:1031800041464746224600F042F853465A46C01A86
:10319000914110D311461846224600F029F82D1A05
:1031A00067EB01084F4622460120002100F020F87D
:1031B00017EB00094E41201EA4F10104DFDC484654
:1031C00031462A464346BDE8F09F0000064C074DB5
:1031D00006E0E06840F0010394E8070098471034E7
:1031E000AC42F6D3FFF7A8FFC4770008E4770008E5
:1031F000202A04DB203A00FA02F1002070479140B7
:10320000C2F1200320FA03F3194390407047202AAB
:1032100004DB203A21FA02F00021704721FA02F380
:10322000D040C2F12002914008431946704770B562
:103230008C1810F8015B15F0070301D110F8013B61
:103240002A1106D110F8012B03E010F8016B01F8E8
:10325000016B5B1EF9D12B0705D40023521E0DD440
:1032600001F8013BFAE710F8013BCB1A921C03E08E
:1032700013F8015B01F8015B521EF9D5A142D8D3C6
:10328000002070BD08B5024A10440090016008BDDE
:10329000006C0040FEE770478000A0F1C0400029AC
:1032A000016802D041F0010101E0024A11400160D1
:1032B00070470000FEFF0F0010B5D0E90112114366
:1032C000D0E903231A431143426911438269114330
:1032D000C2691143026A1143426A1143826A11436F
:1032E000C26A1143026B114302689200A2F1C0420C
:1032F00011608168082907D101688900A1F1C041E6
:103300000A6842F040020A60416BD1E9002342EAB8
:1033100003128B688C891B0243EA04431A430B8A0D
:1033200042EA03520B7D896942EA03620A4301685B
:103330008900A1F1C0414A60C16AB1F5804F08D04F
:1033400000686FF070418000A0F1C040C0F8041127
:1033500010BD816BD1E9002342EA03128B680C8A0D
:103360001B0243EA04531A430B7D896942EA036254
:1033700000680A438000A0F1C040C0F8042110BDDD
:10338000F0B5CA78002502F00F03D20601D58A787D
:1033900013430A784FF00F0E12F0FF0F4FF00102A7
:1033A0001CD004680F8802FA05F63740B74211D1E5
:1033B0004FEA850C0EFA0CF724EA070703FA0CF41F
:1033C0003C43CF78282F02D0482F02D002E046613C
:1033D00000E006616D1C082DE4D304600C88FF2C0E
:1033E0001ED944685FF0000606F1080702FA07F5E7
:1033F0000F882F40AF420FD14FEA860C0EFA0CF720
:10340000BC4303FA0CF73C43CF78282F00D1456129
:10341000CF78482F00D10561761C082EE4D3446094
:10342000F0BD01617047FEE710B501214FF0C050BB
:1034300002F0D0FBBDE810404FF440514FF0006067
:1034400002F0A2BB10B5074C216841F480712160E5
:1034500001460420FFF716FF206820F480702060EA
:1034600010BD0000007000402DE9F043174C81466C
:103470000025208866884643A088A0F5D0410439FD
:1034800002D1A079012807D00021084602F0C2FA33
:1034900002F0FEFA0E4814E00020A0712A2767818E
:1034A0004FF02B08A4F80C80014602F0B3FA01207B
:1034B000A071A4F80A80A781EAE700BFA0F80090F5
:1034C0006D1CB542FAD3BDE8F08300006C0100200A
:1034D0000008006C2DE9F04F50492C232A242B259D
:1034E00022222126898848F689194FF04E0A4FF08A
:1034F0004F0B45F2105EF02749F24138F8B14748CA
:103500004FF0010C414580F806C04FF4A07CA0F8B4
:1035100000C047800FD0A1F5A647103F0BD0A1F502
:10352000D047043F4ED0494550D10281A0F80AB09F
:10353000A0F80CA060E00381448185815CE03748FD
:103540004FF0000C414580F806C007804FF4A0778B
:10355000478011D0A1F5D04CBCF1040C0CD0A1F5E2
:10356000A04CBCF5447C07D0494514D10281A0F899
:103570000AA0A0F80CB04CE003814481A1F5D04230
:103580008581043A03D0A1F5A642103A41D10780C3
:103590004FF4F0710FE071450FD14FF430510181BC
:1035A0004FF4285141814FF42C5181814FF4F07137
:1035B00001804FF4487141802BE00281202141813C
:1035C000868126E003814581848115E071450FD114
:1035D0004FF4305202814FF4285242814FF42C5262
:1035E00082814FF4487202804FF4F072428003E00F
:1035F0000281468120228281A1F5D042043A03D083
:10360000A1F5A642103A04D14FF4F0710180A0F860
:1036100002C0BDE8F04F002002F058B96C01002054
:103620002DE9F04F01210E02A1B0304602F0C6FA9A
:10363000012140F2691002F0E5FA4FF00108ADF8FF
:103640003C8010258DF83F5003208DF83E00474602
:103650000FA9FE48FFF794FE4CF23370ADF83C0022
:1036600018248DF83F4003208DF83E000FA9F8483C
:10367000FFF786FE4FF68070ADF83C008DF83F40B6
:1036800003208DF83E000FA9F248FFF779FE41F2C2
:103690000100ADF83C008DF83F4003208DF83E005E
:1036A0000FA9ED48FFF76CFE00220F201097CDE91F
:1036B0001120139214920320CDE9182015921A922A
:1036C000062016921792CDE900021B921C92CDE9BA
:1036D00002251D9204922802CDE908200692059247
:1036E0008000CDE90A20079210A8CDE90C2017A888
:1036F0000E906846FFF7E0FD01210620FFF7CCFDA4
:10370000322002F089FF0121002002F0CBF93220A3
:1037100002F082FF002002F0CDF8D04DD04C49F2EB
:10372000413AA71CA88046F6040B4FF6FF79FF2804
:1037300004D3484502D0B0F5134F1ED1D3202080CA
:10374000388809EA00210843A880504515D0BF21D8
:103750002180A880584510D0D4212180A0F5A64111
:10376000A880103909D04FF45C412180A880B0F5C1
:10377000004F02D145F21050A88081B2B9A002F0EA
:10378000DBFCA888504504D1EF2038801120208030
:103790000AE058450DD111202080142002F03CFF92
:1037A0002A202080DF203880782002F035FF292071
:1037B000FDE3A0F5A641103946D0A0F5AA41103985
:1037C0004DD0A0F513414FF4E06740F2022B40F2D8
:1037D0003F144FF4274A25397ED0FD1DA0F5134133
:1037E00028397AD0A0F513414FF4887A203975D062
:1037F000A0F51341313901F0F981A0F5A84108394C
:1038000001F0C982A0F5A8514FF4407A053901F0C2
:103810005E83A0F53541053901F06584A0F5454189
:10382000053901F05E85A0F50941893901F022864C
:10383000A0F58A41313901F0D286A0F58A413539A7
:1038400001F08D8701F07FBF552038801120208046
:10385000642002F0E1FE822038802C20A8E74FF49B
:1038600070435521184602F01DF94FF20105AA21B7
:10387000284602F017F96E1C5221304602F012F968
:10388000AF1C0821384602F00DF94FF2040A01215D
:10389000504602F007F90D214FF4304002F002F9D2
:1038A0000D214BF2010002F0FDF80D214BF2020058
:1038B00002F0F8F84FF4364B3421584602F0F2F893
:1038C00034214BF2016002F0EDF834214BF202603A
:1038D00002F0E8F80D2102E0FEE3FEE3FEE34FF420
:1038E000314002F0DFF80D214BF2011002F0DAF85E
:1038F0000D214BF2021002F0D5F834214FF437407D
:1039000002F0D0F834214BF2017002F0CBF83421F0
:103910004BF2027002F0C6F800214FF4324002F080
:10392000C1F800214BF2012002F0BCF800214BF25B
:10393000022002F0B7F824214FF4384002F0B2F828
:1039400024214BF6010002F0ADF824214BF60200D1
:1039500002F0A8F801214FF43F4002F0A3F80F2134
:103960004FF4334002F09EF80F214BF2013002F089
:1039700099F80F214BF2023002F094F834214FF401
:10398000394002F08FF834214BF6011002F08AF82A
:1039900034214BF6021002F085F808214FF435402F
:1039A00002F080F808214BF2015002F07BF8082168
:1039B0004BF2025002F076F803214FF4424002F03D
:1039C00071F824214FF43A4002F06CF824214BF6B0
:1039D000012002F067F824214BF6022002F062F881
:1039E00000214FF43C4002F05DF878214BF6014095
:1039F00002F058F800214BF6024002F053F8002183
:103A00004FF43D4002F04EF878214BF6015002F0A1
:103A100049F800214BF6025002F044F800214FF41F
:103A20003E4002F03FF864214BF6016002F03AF8A4
:103A300000214FF4514002F035F833214DF20110CE
:103A400002F030F800214DF2021013E0000C0140AA
:103A50000014014000180140002001406C010020CA
:103A6000FE07006C204C43442049443A25780D0A57
:103A70000000000002F016F834214DF2031002F0AD
:103A800011F800214DF2041002F00CF83A214DF229
:103A9000051002F007F800214DF2061002F002F8BE
:103AA0004A214DF2071001F0FDFF00214DF20810F0
:103AB00001F0F8FF5C214DF2091001F0F3FF002145
:103AC0004DF20A1001F0EEFF81214DF20B1001F0D2
:103AD000E9FF00214DF20C1001F0E4FFA6214DF2A8
:103AE0000D1001F0DFFF00214DF20E1001F0DAFFA2
:103AF000E5214DF20F1001F0D5FF01214DF210101C
:103B000001F0D0FF13214DF2111001F0CBFF012184
:103B10004DF2121001F0C6FF54214DF2131001F0C6
:103B2000C1FF01214DF2141001F0BCFF82214DF2C2
:103B3000151001F0B7FF01214DF2161001F0B2FF90
:103B4000CA214DF2171001F0ADFF02214DF21810FD
:103B500001F0A8FF00214DF2191001F0A3FF02218E
:103B60004DF21A1001F09EFF01214DF21B1001F0E1
:103B700099FF02214DF21C1001F094FF34214DF207
:103B80001D1001F08FFF02214DF21E1001F08AFF7F
:103B900067214DF21F1001F085FF02214DF2201028
:103BA00001F080FF84214DF2211001F07BFF022102
:103BB0004DF2221001F076FFA4214DF2231001F006
:103BC00071FF02214DF2241001F06CFFB7214DF27C
:103BD000251001F067FF02214DF2261001F062FF6F
:103BE000CF214DF2271001F05DFF02214DF2281088
:103BF00001F058FFDE214DF2291001F053FF0221A0
:103C00004DF22A1001F04EFFF2214DF22B1001F07F
:103C100049FF02214DF22C1001F044FFFE214DF22C
:103C20002D1001F03FFF03214DF22E1001F03AFF5D
:103C300010214DF22F1001F035FF03214DF230100D
:103C400001F030FF33214DF2311001F02BFF032141
:103C50004DF2321001F026FF6D214DF2331001F0CC
:103C600021FF00214FF4524001F01CFF33214DF29F
:103C7000012001F017FF00214DF2022001F012FF98
:103C800034214DF2032001F00DFF00214DF20420FC
:103C900001F008FF3A214DF2052001F003FF002159
:103CA0004DF2062001F0FEFE4A214DF2072001F000
:103CB000F9FE00214DF2082001F0F4FE5C214DF2E6
:103CC000092001F0EFFE00214DF20A2001F0EAFE8A
:103CD00081214DF20B2001F0E5FE00214DF20C2078
:103CE00001F0E0FEA6214DF20D2001F0DBFE0021E7
:103CF0004DF20E2001F0D6FEE5214DF20F2001F02D
:103D0000D1FE01214DF2102001F0CCFE13214DF225
:103D1000112001F0C7FE01214DF2122001F0C2FE78
:103D200054214DF2132001F0BDFE01214DF214206B
:103D300001F0B8FE82214DF2152001F0B3FE012101
:103D40004DF2162001F0AEFECA214DF2172001F00F
:103D5000A9FE02214DF2182001F0A4FE00214DF22F
:103D6000192001F09FFE02214DF21A2001F09AFE67
:103D700001214DF21B2001F095FE02214DF21C2085
:103D800001F090FE34214DF21D2001F08BFE022146
:103D90004DF21E2001F086FE67214DF21F2001F03A
:103DA00081FE02214DF2202001F07CFE84214DF2A3
:103DB000212001F077FE02214DF2222001F072FE57
:103DC000A4214DF2232001F06DFE02214DF22420AA
:103DD00001F068FEB7214DF2252001F063FE0221BB
:103DE0004DF2262001F05EFECF214DF2272001F09A
:103DF00059FE02214DF2282001F054FEDE214DF241
:103E0000292001F04FFE02214DF22A2001F04AFE46
:103E1000F2214DF22B2001F045FE02214DF22C2023
:103E200001F040FEFE214DF22D2001F03BFE03216A
:103E30004DF22E2001F036FE10214DF22F2001F020
:103E400031FE03214DF2302001F02CFE33214DF2E2
:103E5000312001F027FE03214DF2322001F022FE35
:103E60006D214DF2332001F01DFE00214FF453402F
:103E700001F018FE33214DF2013001F013FE002154
:103E80004DF2023001F00EFE34214DF2033001F00C
:103E900009FE00214DF2043001F004FE3A214DF2FA
:103EA000053001F0FFFD00214DF2063001F0FAFD72
:103EB0004A214DF2073001F0F5FD00214DF20830A6
:103EC00001F0F0FD5C214DF2093001F0EBFD002125
:103ED0004DF20A3001F0E6FD81214DF20B3001F088
:103EE000E1FD00214DF20C3001F0DCFDA6214DF288
:103EF0000D3001F0D7FD00214DF20E3001F0D2FD62
:103F0000E5214DF20F3001F0CDFD01214DF21030D1
:103F100001F0C8FD13214DF2113001F0C3FD012164
:103F20004DF2123001F0BEFD54214DF2133001F07C
:103F3000B9FD01214DF2143001F0B4FD82214DF2A2
:103F4000153001F0AFFD01214DF2163001F0AAFD50
:103F5000CA214DF2173001F0A5FD02214DF21830B3
:103F600001F0A0FD00214DF2193001F09BFD02216E
:103F70004DF21A3001F096FD01214DF21B3001F097
:103F800091FD02214DF21C3001F08CFD34214DF2E7
:103F90001D3001F087FD02214DF21E3001F082FD3F
:103FA00067214DF21F3001F07DFD022100E0ECE3BE
:103FB0004DF2203001F076FD84214DF2213001F0E8
:103FC00071FD02214DF2223001F06CFDA4214DF271
:103FD000233001F067FD02214DF2243001F062FD33
:103FE000B7214DF2253001F05DFD02214DF2263062
:103FF00001F058FDCF214DF2273001F053FD022191
:104000004DF2283001F04EFDDE214DF2293001F055
:1040100049FD02214DF22A3001F044FDF2214DF21A
:104020002B3001F03FFD02214DF22C3001F03AFD22
:10403000FE214DF22D3001F035FD03214DF22E30E1
:1040400001F030FD10214DF22F3001F02BFD032146
:104050004DF2303001F026FD33214DF2313001F0C8
:1040600021FD03214DF2323001F01CFD6D214DF296
:10407000333001F017FD00214FF4544001F012FDE0
:1040800033214DF2014001F00DFD00214DF20240BF
:1040900001F008FD34214DF2034001F003FD002141
:1040A0004DF2044001F0FEFC3A214DF2054001F0D2
:1040B000F9FC00214DF2064001F0F4FC4A214DF2DA
:1040C000074001F0EFFC00214DF2084001F0EAFC4E
:1040D0005C214DF2094002E059E3FDE3FDE301F00C
:1040E000E1FC00214DF20A4001F0DCFC81214DF29F
:1040F0000B4001F0D7FC00214DF20C4001F0D2FC46
:10410000A6214DF20D4001F0CDFC00214DF20E40F4
:1041100001F0C8FCE5214DF20F4001F0C3FC012184
:104120004DF2104001F0BEFC13214DF2114001F0A0
:10413000B9FC01214DF2124001F0B4FC54214DF2C2
:10414000134001F0AFFC01214DF2144001F0AAFC34
:1041500082214DF2154001F0A5FC01214DF21640DF
:1041600001F0A0FCCA214DF2174001F09BFC022196
:104170004DF2184001F096FC00214DF2194001F07B
:1041800091FC02214DF21A4001F08CFC01214DF20C
:104190001B4001F087FC02214DF21C4001F082FC23
:1041A00034214DF21D4001F07DFC02214DF21E40F4
:1041B00001F078FC67214DF21F4001F073FC0221F1
:1041C0004DF2204001F06EFC84214DF2214001F0BF
:1041D00069FC02214DF2224001F064FCA4214DF261
:1041E000234001F05FFC02214DF2244001F05AFC13
:1041F000B7214DF2254001F055FC02214DF2264039
:1042000001F050FCCF214DF2274001F04BFC022180
:104210004DF2284001F046FCDE214DF2294001F02C
:1042200041FC02214DF22A4001F03CFCF2214DF20A
:104230002B4001F037FC02214DF22C4001F032FC02
:10424000FE214DF22D4001F02DFC03214DF22E40B8
:1042500001F028FC10214DF22F4001F023FC032136
:104260004DF2304001F01EFC33214DF2314001F09F
:1042700019FC03214DF2324001F014FC6D214DF286
:10428000334001F00FFC00214FF4554001F00AFCCF
:1042900033214DF2015001F005FC00214DF2025096
:1042A00001F000FC34214DF2035001F0FBFB002132
:1042B0004DF2045001F0F6FB3A214DF2055001F0A9
:1042C000F1FB00214DF2065001F0ECFB4A214DF2CA
:1042D000075001F0E7FB00214DF2085001F0E2FB2E
:1042E0005C214DF2095001F0DDFB00214DF20A5036
:1042F00001F0D8FB81214DF20B5001F0D3FB0021DE
:104300004DF20C5001F0CEFBA6214DF20D5001F004
:10431000C9FB00214DF20E5001F0C4FBE5214DF226
:104320000F5001F0BFFB01214DF2105001F0BAFB1C
:1043300013214DF2115001F0B5FB01214DF2125045
:1043400001F0B0FB54214DF2135001F0ABFB012101
:104350004DF2145001F0A6FB82214DF2155001F0F0
:10436000A1FB01214DF2165001F09CFBCA214DF238
:10437000175001F097FB02214DF2185001F092FB0B
:1043800000214DF2195001F08DFB02214DF21A501F
:1043900001F088FB01214DF21B5001F083FB02214B
:1043A0004DF21C5001F07EFB34214DF21D5001F006
:1043B00079FB02214DF21E5001F074FB67214DF292
:1043C0001F5001F06FFB02214DF2205001F06AFBFB
:1043D00084214DF2215001F065FB02214DF2225063
:1043E00001F060FBA4214DF2235001F05BFB0221A0
:1043F0004DF2245001F056FBB7214DF2255001F04B
:1044000051FB02214DF2265001F04CFBCF214DF221
:10441000275001F047FB02214DF2285001F042FBEA
:10442000DE214DF2295001F03DFB02214DF22A50D0
:1044300001F038FBF2214DF22B5001F033FB022149
:104440004DF22C5001F02EFBFE214DF22D5001F0CB
:1044500029FB03214DF22E5001F024FB10214DF2D7
:104460002F5001F01FFB03214DF2305001F01AFBD9
:1044700033214DF2315001F015FB03214DF2325042
:1044800001F010FB6D214DF2335001F00BFB0021C8
:104490004FF4564001F006FB33214DF2016001F06C
:1044A00001FB00214DF2026001F0FCFA34214DF2D3
:1044B000036001F0F7FA00214DF2046001F0F2FA16
:1044C0003A214DF2056001F0EDFA00214DF206604F
:1044D00001F0E8FA4A214DF2076001F0E3FA002109
:1044E0004DF2086001F0DEFA5C214DF2096001F046
:1044F000D9FA00214DF20A6001F0D4FA81214DF27F
:104500000B6001F0CFFA00214DF20C6001F0CAFA05
:10451000A6214DF20D6001F0C5FA00214DF20E60AA
:1045200001F0C0FAE5214DF20F6001F0BBFA012164
:104530004DF2106001F0B6FA13214DF2116001F056
:10454000B1FA01214DF2126001F0ACFA54214DF2A2
:10455000136001F0A7FA01214DF2146001F0A2FAF4
:1045600082214DF2156001F09DFA01214DF2166095
:1045700001F098FACA214DF2176001F093FA022176
:104580004DF2186001F08EFA00214DF2196001F031
:1045900089FA02214DF21A6001F084FA01214DF2EC
:1045A0001B6001F07FFA02214DF21C6001F07AFAE3
:1045B00034214DF21D6001F075FA02214DF21E60AA
:1045C00001F070FA67214DF21F6001F06BFA0221D1
:1045D0004DF2206001F066FA84214DF2216001F075
:1045E00061FA02214DF2226001F05CFAA4214DF241
:1045F000236001F057FA02214DF2246001F052FAD3
:10460000B7214DF2256001F04DFA02214DF22660EE
:1046100001F048FACF214DF2276001F043FA022160
:104620004DF2286001F03EFADE214DF2296001F0E2
:1046300039FA02214DF22A6001F034FAF2214DF2EA
:104640002B6001F02FFA02214DF22C6001F02AFAC2
:10465000FE214DF22D6001F025FA03214DF22E606E
:1046600001F020FA10214DF22F6001F01BFA032116
:104670004DF2306001F016FA33214DF2316001F055
:1046800011FA03214DF2326001F00CFA6D214DF266
:10469000336001F007FA5521184601F003FAAA2108
:1046A000284601F0FFF95221304601F0FBF90821BC
:1046B000384601F0F7F90021504601F0F3F9CC211A
:1046C0004FF4314001F0EEF900214BF2011001F0FE
:1046D000E9F90521584601F0E5F970214FF437401A
:1046E00001F0E0F970214BF2017001F0DBF90121DA
:1046F0004FF4384001F0D6F903214BF6010001F0E8
:10470000D1F903214BF6020001F0CCF903214BF65D
:10471000030001F0C7F902214FF43C4001F0C2F957
:1047200000214BF6014001F0BDF900214BF602409B
:1047300001F0B8F9D0214FF4494001F0B3F902215A
:104740004CF6011001F0AEF950214CF6021001F0C8
:10475000A9F950214CF6031001F0A4F950214CF6B0
:10476000041001F09FF900214FF4545001F09AF920
:1047700055214FF4685001F095F94FF4885020808E
:10478000782001F063FF4FF424502080FEE347F6C9
:10479000F001E52001F086F93146012001F082F9AF
:1047A0003946022001F07EF941F23001032001F088
:1047B00079F90021042001F075F95946082001F02B
:1047C00071F90021092001F06DF900210A2001F0A2
:1047D00069F900210C2001F065F900210D2001F09C
:1047E00061F900210F2001F05DF90021102001F096
:1047F00059F90721112001F055F90021122001F08B
:1048000051F90021132001F04DF90021072001F09A
:1048100049F941F29061102001F044F940F227215A
:10482000112001F03FF99D21122001F03BF94FF4D6
:10483000C851132001F036F92521292001F032F961
:104840000D212B2001F02EF90721302001F02AF94B
:1048500040F20331312001F025F90321322001F02B
:1048600021F940F20621352001F01CF908213620FB
:1048700001F018F940F20641372001F013F94FF426
:104880004171382001F00EF90721392001F00AF9B1
:1048900040F202613C2001F005F908213D2001F0C1
:1048A00001F90021502001F0FDF8EF21512001F025
:1048B000F9F80021522001F0F5F82146532001F0CB
:1048C000F1F85146602001F0EDF80121612001F07E
:1048D000E9F800216A2001E027E0E2E001F0E2F8D7
:1048E0000021802001F0DEF80021812001F0DAF8BB
:1048F0000021822001F0D6F80021832001F0D2F8B7
:104900000021842001F0CEF80021852001F0CAF8B2
:104910001021902001F0C6F84FF4C061922001F000
:10492000C1F840F233110720FEE341F28F01EC2081
:1049300001F0B8F841F23421EF2001F0B3F831462C
:10494000012001F0AFF83946022001F0ABF841F246
:104950003001032001F0A6F80021042001F0A2F8A4
:104960005946082001F09EF80021092001F09AF82C
:1049700000210A2001F096F801210C2001F092F8A4
:1049800000210D2001F08EF800210F2001F08AF89F
:104990000021102001F086F80721112001F082F893
:1049A0000021122001F07EF80021132001F07AF896
:1049B0000121072001F076F8322001F02DFE41F2AE
:1049C0009041102001F06EF840F22721112001F0F3
:1049D00069F8322001F020FE8A21122001F062F8ED
:1049E000322001F019FE4FF4D051132001F05AF893
:1049F0000621292001F056F80D212B2001F052F854
:104A0000322001F009FE0021202001F04BF80021A6
:104A1000212001F047F8322001F0FEFD0021302076
:104A200001F040F840F20461312001F03BF840F21F
:104A30000531322001F036F80021352001F032F83E
:104A400040F60941362001F02DF84FF4017137206E
:104A500001F028F840F20131382001F023F829460E
:104A6000392001F01FF800213C2001F01BF840F62E
:104A70000A213D2001F016F8322001F0CDFD002181
:104A8000502001F00FF8EF21512001F00BF8002128
:104A9000522001F007F82146532001F003F8514657
:104AA0004EE10021084600F0FDFF3146012000F0F4
:104AB000F9FF3946022000F0F5FF41F230010320F2
:104AC00000F0F0FF0021042000F0ECFF5946082020
:104AD00000F0E8FF0021092000F0E4FF00210A2097
:104AE00000F0E0FF01210C2000F0DCFF00210D2090
:104AF00000F0D8FF00210F2000F0D4FF322001F099
:104B00008BFD40F20111072000F0CCFF322001F0B4
:104B100083FD4FF48651102000F0C4FF07211120BF
:104B200000F0C0FF53465146122000F0BBFF4FF487
:104B30003061132000F0B6FF0021292000F0B2FF01
:104B400044F210012B2000F0ADFF0021502000F0B6
:104B5000A9FFEF21512000F0A5FF0021522000F015
:104B6000A1FF2146532000F09DFF4FF41C5160200F
:104B700000F098FF0121612000F094FF00216A20DD
:104B800000F090FF0021802000F08CFF00218120A8
:104B900000F088FF0021822000F084FF00218320A4
:104BA00000F080FF0021842000F07CFF00218520A0
:104BB00000F078FF1021902000F074FF0021922077
:104BC00000F070FF0121932000F06CFF1946952042
:104BD00000F068FF0021972000F064FF002198207A
:104BE00000F060FF40F27311072079E341F21401F5
:104BF000E72000F057FF3146012000F053FF4FF44B
:104C00000071022000F04EFF41F23801032000F055
:104C100049FF5946082000F045FF0021092000F017
:104C200041FF00210A2000F03DFF00210C2000F090
:104C300039FF00210D2000F035FF00210F2000F08A
:104C400031FF0021102000F02DFF0721112000F07E
:104C500029FF0021122000F025FF0021132000F081
:104C600021FFC82001F0D8FC41F29061102000F033
:104C700019FF40F22721112000F014FF322001F02B
:104C8000CBFC0C21122000F00DFF322001F0C4FCFF
:104C90004FF40061132000F005FF1121292000F0DE
:104CA00001FF0B212B2000F0FDFE322001F0B4FCAF
:104CB0000021202000F0F6FE2146212000F0F2FE27
:104CC0000021302000F0EEFE4FF4837319463120AE
:104CD00000F0E8FE0021322000F0E4FE4FF4017104
:104CE000352000F0DFFE41F20A61362000F0DAFEE6
:104CF0002946372000F0D6FE1946382000F0D2FEB3
:104D00002946392000F0CEFE40F202413C2000F05E
:104D1000C9FE40F60F413D2000F0C4FE00215020A6
:104D200000F0C0FEEF21512000F0BCFE0021522017
:104D300000F0B8FE2146532000F0B4FE4FF41C51A1
:104D4000602000F0AFFE0121612000F0ABFE0021E9
:104D50006A2000F0A7FE0021802000F0A3FE0021C1
:104D6000812000F09FFE0021822000F09BFE0021A8
:104D7000832000F097FE0021842000F093FE0021A4
:104D8000852000F08FFE1021902000F08BFE4FF464
:104D9000C0619220FEE33146012000F083FE3946D7
:104DA000022000F07FFE41F23001032000F07AFE85
:104DB0000021042000F076FE40F20721082000F0D8
:104DC00071FE0021092000F06DFE00210A2000F094
:104DD00069FE00210C2000F065FE00210D2000F08E
:104DE00061FE00210F2000F05DFE142001F014FC94
:104DF00041F2B061102000F055FE0121112000F0B9
:104E000051FE0121172000F04DFE4FF49C7112203D
:104E100000F048FE4FF40061132000F043FE09212A
:104E2000292000F03FFE09212A2000F03BFE00214E
:104E3000A42000F037FE0021502000F033FEEF21C7
:104E4000512000F02FFE0021522000F02BFE2146C1
:104E5000532000F027FE4FF41C51602000F022FE8A
:104E60000121612000F01EFE00216A2000F01AFEE0
:104E70000021802000F016FE0021812000F012FEAB
:104E80000021822000F00EFE0021832000F00AFEA7
:104E90000021842000F006FE0021852000F002FEA3
:104EA0001321902000F0FEFD0021922000F0FAFD79
:104EB0000321932000F0F6FD5146952000F0F2FD0D
:104EC00040F27311072000F0EDFD322008E10021CF
:104ED000072000F0E7FD322001F09EFB4FF48E71B9
:104EE000122000F0DFFD0121A42000F0DBFD0F21E6
:104EF000082000F0D7FD08210A2000F0D3FD08218A
:104F00000D2000F0CFFD2946302000F0CBFD072119
:104F1000312000F0C7FD40F20361322000F0C2FDF5
:104F20003946332000F0BEFD5946342000F0BAFD6A
:104F30000221352000F0B6FD41F60F71362000F059
:104F4000B1FD2946372000F0ADFD0021382000F0EA
:104F5000A9FD0021392000F0A5FD29463A2000F0E6
:104F6000A1FD00213B2000F09DFD07213C2000F029
:104F700099FD00213D2000F095FD322001F04CFB11
:104F80000121072000F08EFD012100E0DBE3172066
:104F900000F088FD322001F03FFB4FF4BD5110209E
:104FA00000F080FD40F21721112000F07BFD4FF44E
:104FB0008F71122000F076FD4FF47061132000F025
:104FC00071FD00212A2000F06DFD0A21292000F04A
:104FD00069FD4FF49F71122000F064FD0021502004
:104FE00000F060FDEF21512000F05CFD0021522017
:104FF00000F058FD2146532000F054FD4FF41C51A1
:10500000602000F04FFD0121612000F04BFD0021E8
:105010006A2000F047FD0021802000F043FD0021C0
:10502000812000F03FFD0021822000F03BFD0021A7
:10503000832000F037FD0021842000F033FD0021A3
:10504000852000F02FFD1321902000F02BFD51460C
:10505000922000F027FD0521932000F023FD002180
:10506000952000F01FFD0021972000F01BFD00217E
:10507000982000F017FD3146012000F013FD39465D
:10508000022000F00FFD41F23801032000F00AFD7C
:105090000021042000F006FD00210C2000F002FD9C
:1050A00000210F2000F0FEFC0021202000F0FAFC7F
:1050B0000021212000F0F6FC2121072000F0F2FC65
:1050C000142001F0A9FA6121072000F0EBFC142064
:1050D00001F0A2FA40F27311072000F0E3FC142063
:1050E00001F09AFA2FE30021084600F0DBFC0021D2
:1050F000084600F0D7FC0021084600F0D3FC002150
:10510000084600F0CFFC0121A42000F0CBFC1420C5
:1051100001F082FA4FF41C5A5146602000F0C2FCA4
:105120005D465946082000E0D6E000F0BBFC4FF495
:105130000571302000F0B6FC43F21571312000F00B
:10514000B1FC40F20461322000F0ACFC40F6166184
:10515000332000F0A7FC42F21121342000F0A2FC21
:105160004FF4A851352000F09DFC48F2075136203D
:1051700000F098FC41F20741372000F093FC41F227
:105180000341382000F08EFC2021392000F08AFCF9
:105190001A21902000F086FC0021102000F082FCF3
:1051A0000721112000F07EFC0021122000F07AFC83
:1051B0000021132000F076FC142001F02DFA4FF4AA
:1051C000E661102000F06EFC40F23711112000F073
:1051D00069FC142001F020FA4FF4DC71122000F079
:1051E00061FC142001F018FA4FF47061132000F0F4
:1051F00059FC80212A2000F055FC4821292000F08C
:1052000051FC142001F008FA3146012000F04AFC5C
:105210003946022000F046FC41F23801032000F03C
:1052200041FC2946082000F03DFC00210A2000F046
:1052300039FC00210C2000F035FC00210D2000F08D
:1052400031FC30210E2000F02DFC0021502000F018
:1052500029FCEF21512000F025FC0021522000F014
:1052600021FC2146532000F01DFC5146602000F037
:1052700019FC0121612000F015FC00216A2000F0DA
:1052800011FC1121902000F00DFC4FF4C061922020
:1052900000F008FC40F20241932000F003FC0221E0
:1052A000942000F0FFFB142001F0B6F90121072043
:1052B00000F0F8FB142001F0AFF96121072000F0A5
:1052C000F1FB40F27311072000F0ECFB00212020DD
:1052D00000F0E8FB0021212000F0E4FB2221002067
:1052E0002FE20021084600F0DDFB0021084600F017
:1052F000D9FB142001F090F90021084600F0D2FB00
:105300000021084600F0CEFB0021084600F0CAFB51
:105310000021084600F0C6FB0121A42000F0C2FBDA
:10532000142001F079F94FF41C51602000F0BAFB11
:1053300040F60601082000F0B5FB40F20373194661
:10534000302000F0AFFB0121312000F0ABFB042145
:10535000322000F0A7FB4FF48171332000F0A2FB54
:1053600055465146342000F09DFB40F20311352094
:1053700000F098FB1F21362000F094FB19463720DF
:1053800000F090FB0121382000F08CFB0421392033
:1053900000F088FB1521902000F084FB4FF482611F
:1053A000102000F07FFB40F24721112000F07AFB33
:1053B0004FF4DE71122000F075FB4FF46061132092
:1053C00000F070FB782001F027F93146012000F051
:1053D00069FB4FF40071022000F064FB41F23001E0
:1053E000032000F05FFB08210A2000F05BFB002196
:1053F0000C2000F057FB20210E2000F053FB002171
:105400000F2000F04FFB0021202000F04BFB00217B
:10541000212000F047FB3D212A2000F043FB14200F
:1054200001F0FAF82D21292000F03CFB002150204A
:1054300000F038FB4DF2EF01512000F033FB00216A
:10544000522000F02FFB2146532000F02BFB0021BF
:10545000612000F027FB00216A2000F023FB294691
:10546000922000F01FFB0521932000F01BFB31462A
:10547000FFF7BABB0121002000F014FB4AF6A4019B
:10548000032000F00FFB00210C2000F00BFB40F686
:105490000C010D2000F006FB4FF42C510E2000F003
:1054A00001FBB0211E2000F0FDFA42F63F31012041
:1054B00000F0F8FA4FF4C061022000F0F3FA002186
:1054C000102000F0EFFA46F27801112000F0EAFA1D
:1054D0000021052000F0E6FA0021062000F0E2FAA3
:1054E0004EF61C71162000F0DDFA0321172000F0A3
:1054F000D9FA40F23321072000F0D4FA00210B2022
:1055000000F0D0FA00210F2000F0CCFA0021412059
:1055100000F0C8FA0021422000F0C4FA002148201F
:1055200000F0C0FA2146492000F0BCFA00214A20D0
:1055300000F0B8FA00214B2000F0B4FA4FF46F41AC
:10554000442000F0AFFA0021452000F0ABFA2146DC
:10555000462000F0A7FA2946302000F0A3FA4FF4C5
:1055600001731946312000F09DFA1946322000F0EF
:1055700099FA40F202542146332000F093FA611D5B
:10558000342000F08FFA1946352000F08BFA1946C6
:10559000362000E086E100F085FA2146372000F051
:1055A00081FA40F2023319463A2000F07BFA19469C
:1055B0003B2000F077FA0021232000F073FA00214D
:1055C000242000F06FFA4FF40041252000F06AFA21
:1055D00000214F2000F066FA00214E20B1E00121A9
:1055E000002000F05FFA0A2001F016F841F228616D
:1055F000102000F057FA0E21122000F053FA40F666
:105600003921132000F04EFA0A2001F005F840215C
:10561000112000F047FA5021152000F043FA0A202B
:1056200000F0FAFF1E21122000F03CFA0A2000F0E0
:10563000F3FF4FF4B151102000F034FA42F6392153
:10564000132000F02FFA0A2000F0E6FF3146012077
:1056500000F028FA5146022000F024FA41F2380105
:10566000032000F01FFA5946082000F01BFA082119
:105670000A2000F017FA0021302000F013FA40F25F
:105680000241312000F00EFA4FF48371322000F015
:1056900009FA40F20351332000F004FA4FF482710A
:1056A000342000F0FFF940F20131352000F0FAF922
:1056B0002946362000F0F6F940F20531372000F097
:1056C000F1F94FF40271382000F0ECF940F60B715B
:1056D000392000F0E7F90221412000F0E3F94FF40E
:1056E0001C51602000F0DEF90121612000F0DAF9A0
:1056F0004FF40471902000F0D5F94FF48571922099
:1057000000F0D0F90421932000F0CCF93146A0201C
:1057100000F0C8F90121072000F0C4F92121072079
:1057200000F0C0F92321072000F0BCF93321072045
:1057300000F0B8F940F23311072000F0B3F900216E
:10574000A02000F0AFF90020FDF7C4FE5849C1F8D1
:1057500080814846FDF788FE21B0BDE8F08F3021FA
:10576000152000F09FF910219A2000F09BF92021CC
:10577000112000F097F943F22841102000F092F92F
:105780000221122000F08EF941F23801132000F0BE
:1057900089F9282000F040FF1221084600F082F924
:1057A000282000F039FF43F22041102000F07AF960
:1057B00043F23801132000F075F9462000F02CFF69
:1057C0000021302000F06EF940F20241312000F05B
:1057D00069F940F20731322000F064F94FF4417169
:1057E000332000F05FF90421342000F05BF940F22F
:1057F0000141352000F056F92946362000F052F9D3
:1058000040F20531372000F04DF94FF4C2631946DC
:10581000382000F047F91946392000F043F93146A5
:10582000012000F03FF95146022000F03BF941F21F
:105830003001032000F036F940F60801082000F09E
:1058400031F908210A2000F02DF94FF41C51602095
:1058500000F028F90121612000F024F94FF49F7134
:10586000902000F01FF93146922000F01BF93146DC
:10587000932000F017F94FF44051A02000F012F9E6
:105880001021A32000F00EF90121072000F00AF9F1
:105890002121072000F006F92321072000F002F95A
:1058A0003321072000F0FEF840F23311E0E500005C
:1058B00000802142044910B50880052000F0C6FE92
:1058C0000148801C008810BDFE07006CF0B54F4CED
:1058D00000232146A579898846F60402012D18D1B6
:1058E000914216D0082814D2DFE800F00406080A16
:1058F0000C0E101206200CE007200AE0042008E03D
:10590000052006E0012004E0002002E0032000E082
:105910000220A1F5134745F2103645F21055413FDC
:1059200005D0914203D0B14201D0A94249D1082803
:1059300012D2DFE800F0110406080A0C0E108023D2
:105940000AE0402308E0C02306E0202304E06023AF
:1059500002E0A02300E0E023A94202D14FF4585016
:1059600000E03620B14203D0A94201D043F0080341
:10597000914201D143F00203194600F093F89806D2
:1059800014D4A079012811D020886188884201D9D7
:10599000218060801E4AA088911CA842A0890AD15B
:1059A000A378C01C10805B1ED8B208E020886188F4
:1059B0008842EDD3EEE71080A078401EC0B2088088
:1059C000F0BD082812D2DFE800F0040608110A0C26
:1059D0000E1030230AE0102308E0202306E03823CD
:1059E00004E0282302E0182300E00823A1F5094081
:1059F000893806D0032043F48051BDE8F04000F020
:105A000051B8112046F240011943F6E76C0100201D
:105A1000FE07006C2DE9F0431B4E1C4A3746B58843
:105A20000C46931CB989B7F80A80A5F5134CBCF154
:105A3000410C16D0A5F5A647103F12D0B14696F8F6
:105A400006C03688A5F5D047361A761E043F08D022
:105A5000A5F5AA47103F09D04B46BCF1010F07D06E
:105A600007E01180E0B21880BDE8F083491CF8E738
:105A7000B0B20146404600F015F898892146BDE8CD
:105A8000F04300F00FB800006C010020FE07006C2E
:105A90000248034900890880704700006C0100201B
:105AA000FE07006C024A1080901C018070470000C5
:105AB000FE07006C38B50121482000F0A3F820242F
:105AC000ADF8004010208DF8030003200B4D8DF839
:105AD000020069462846FDF753FC20212846FDF7C1
:105AE000A0FCADF80040064C69462046FDF748FC96
:105AF00020212046FDF795FC38BD0000000C014038
:105B000000180140FEE770474FF4A06000F032B883
:105B100070B50F23C47801780122F4B1144C2468C5
:105B2000457804F4E064C4F5E064240AC4F1040692
:105B3000E3408478B5401C402C4301F1E02123016F
:105B400081F80034007800F01F018A40400980008D
:105B500000F1E020C0F8002170BD01F01F0082407C
:105B60004809800000F1E020C0F8802170BD0000ED
:105B70000CED00E00249084302490860704700004C
:105B80000000FA050CED00E0024A11400143024812
:105B90000160704780FFFF1F08ED00E004480168C6
:105BA000044A01F4E06111430160BFF34F8FFEE747
:105BB0000CED00E00400FA0570470000044A0029DB
:105BC000516901D0014300E08143516170470000F9
:105BD00000100240044A0029D16901D0014300E0CD
:105BE0008143D1617047000000100240044A00293F
:105BF000116901D0014300E0814311617047000049
:105C000000100240044A0029916901D0014300E0DC
:105C1000814391617047000000100240044A00294E
:105C2000D16801D0014300E08143D160704700009A
:105C30000010024030B51F494A6812F00C031E4A9A
:105C400003D0042B01D0082B21D002604A680F2317
:105C50001A4C03EA1212A35C0268DA4042604B68F5
:105C6000072505EA1323E35C22FA03F383604B68FC
:105C700005EAD323E35CDA40C2604968032303EA00
:105C80009131231F595CB2FBF1F1016130BD4A68CB
:105C90004B6802F470124FF0020413F4803F04EBDF
:105CA000924202D04B689B0301D5054B00E0024BAA
:105CB0005A43CAE70010024000127A002400002074
:105CC00000093D00704700000CB5002126480191F5
:105CD0000091026842F4803202604FF4A0630268CF
:105CE00002F400320092019A521C0192009A12B9F9
:105CF000019A9A42F3D10268920333D501210091AF
:105D00001A490A6842F010020A600A6822F0030287
:105D10000A600A6842F002020A6041684160416814
:105D20004160416841F480614160416821F47C1127
:105D30004160416841F4E8114160016841F08071BF
:105D4000016001688901FCD5416821F003014160CF
:105D5000416841F0020141604168C1F381010229BB
:105D6000FAD10CBD00910CBD001002400020024091
:105D70004FF0E0210428086903D020F004000861F6
:105D8000704740F00400FAE7704700000F4810B574
:105D9000016841F00101016041680D4A1140416014
:105DA00001680C4A11400160016821F48021016002
:105DB000416821F4FE0141604FF41F018160FFF74B
:105DC00083FF05494FF00060086010BD00100240DD
:105DD0000000FFF8FFFFF6FE08ED00E010B54FF001
:105DE0008044208AC00707D0064800698047002009
:105DF000A0844FF47A70A085208A20F001002082D0
:105E000010BD0000780000200029018802D041F078
:105E1000010101E021F0010101807047002A82891F
:105E200001D00A4300E08A438281704730B502887E
:105E30001B4B1C4C98420DD0A0420BD0B0F1804FB0
:105E400008D0194DA84205D0184DA84202D0184DCF
:105E5000A84203D122F070054A882A43154DA84272
:105E600006D0154DA84203D022F44075CA882A43B3
:105E700002808A8882850A88028598420AD0A042D8
:105E800008D00E4A904205D00D4A904202D00D4AE9
:105E9000904201D1097A01860121818230BD000042
:105EA000002C014000340140000400400008004084
:105EB000000C004000100040001400400040014071
:105EC00000440140004801407FB50C4605460121D1
:105ED0000846FFF77FFEADF800400020ADF8045003
:105EE000ADF80600ADF802004FF080446946204648
:105EF000FFF79CFF012241212046FFF78FFF1C2066
:105F00008DF80C0003218DF80D108DF80E10012076
:105F10008DF80F0003A8FFF7FBFD01212046FFF7D6
:105F200073FF7FBD70B5154C40F22551204600F03F
:105F30006FF800280ED0204600F0F8F8C2B21048E2
:105F400001880B0406D44C044FF0000306D50A2A3E
:105F500001D0038070BD41F400410DE00D2A09D04D
:105F6000C1F30D04074D491C89B22A550180C72988
:105F7000EFD870BD41F48041018070BD0038014010
:105F8000180000207A0100200029818902D041F404
:105F9000005101E021F4005181817047174910B58B
:105FA00088420AD101218C032046FFF737FE2046A4
:105FB000BDE810400021FFF731BE1149884202D1EF
:105FC00001214C0410E00F49884202D101218C04C8
:105FD0000AE00D49884202D10121CC0404E00B49BA
:105FE00088420AD101210C052046FFF7FFFD20461B
:105FF000BDE810400021FFF7F9BD10BD0038014099
:106000000044004000480040004C00400050004068
:1060100030B501F01F0201240025C1F3421304FA38
:1060200002F2012B0FD0022B0FD0838A4FEA1121ED
:106030000088134204FA01F400EA040001D000B120
:106040000125284630BD8389F0E7038AEEE710B5C5
:10605000C1F3421301F01F040121A140012B07D01D
:10606000022B07D01430002A026805D00A4304E04E
:106070000C30F8E71030F6E78A43026010BD0000EC
:1060800030B50446008A85B00D464CF6FF710840D5
:10609000E98801432182A1894EF6F3100140A888C6
:1060A0002A8910436A890A431043A081A08A4FF6C7
:1060B000FF410840A9890143A1826846FFF7BAFD64
:1060C0001948844201D1039800E00298A18909048B
:1060D00000EBC00101EB0010296801D5490000E088
:1060E0008900B0FBF1F06422B0FBF2F109010B0969
:1060F0006FF018056B4300EB8300A3891D044FF07C
:10610000320306D503EBC000B0FBF2F000F007004D
:1061100005E003EB0010B0FBF2F000F00F000843C5
:10612000208105B030BD0000003801408088C0F3F8
:1061300008007047FEE700000FB4054B10B503A937
:10614000044A029800F018F810BC5DF814FB000037
:10615000816600081C00002002E008C8121F08C168
:10616000002AFAD170477047002001E001C1121FD8
:10617000002AFBD1704700002DE9FF4F8DB00F467C
:106180000546002606E025280BD0DDE90F129047D2
:106190006D1C761C28780028F5D111B03046BDE87A
:1061A000F08F0024A246A1460122EC4900E00443FE
:1061B00015F8013F203B02FA03F00842F7D1287896
:1061C0002A2810D06FF02F022878A0F13001092979
:1061D00014D80AEB8A0102EB410144F0020400EBFF
:1061E000010A6D1CF0E701CF5FEA000A03D544F411
:1061F0000054CAF1000A44F002046D1C28782E28CD
:1062000017D115F8010F44F004042A280ED06FF0BE
:106210002F022878A0F1300109290AD809EB890159
:1062200002EB410100EB01096D1CF2E757F8049BFA
:106230006D1C28786C280FD006DC4C2817D06828F5
:106240000DD06A2814D104E0742810D07A280FD118
:106250000DE044F400140AE044F4801401E044F436
:1062600040146978814202D104F580146D1C6D1CC4
:106270002A786E2A1FD00CDC632A31D004DC002A75
:106280008BD0582A11D1A3E0642A68D0692A0CD196
:1062900065E0732A2ED004DC6F2A73D0702A04D1F3
:1062A0009BE0752A6FD0782A6ED01046DDE90F1278
:1062B0009047761C50E1C4F30250022806D0032810
:1062C00009D0042801CF09D0066045E101CFF117BC
:1062D000C0E9006140E101CF06803DE106703BE18D
:1062E00017F8040B8DF8000000208DF80100EB4634
:1062F000012003E057F804BB4FF0FF3061074FF077
:10630000000102D40DE008F10101884649450FDA89
:106310008045F8DB1BF808100029F4D108E008F1EB
:10632000010188468142FADB1BF808100029F6D1EA
:10633000DDE90F23AAEB08008146214600F036F97B
:10634000304400EB080604E0DDE90F121BF8010BF6
:106350009047B8F10108F7D221464846F7E00A21F4
:10636000C4F302534FF0000B0891022B04D001CF6D
:10637000C117032B09D00AE0FF1D27F00707F7E834
:10638000020108E032E01FE020E000B2C117042B58
:1063900001D140B2C117031E71F1000307DA4FF0BB
:1063A000000CD0EB0C006CEB01012D2302E0230567
:1063B00004D52B238DF82430012303E0E30701D01B
:1063C0002023F7E7984658E00A2110E010210EE05C
:1063D00010204FF0000B08900CE010214FF0000B44
:1063E00044F004044FF00809089103E008214FF03D
:1063F000000B0891C4F30253022B04D001CF0021FB
:10640000032B06D006E0FF1D27F00707F7E802017F
:1064100003E080B2042B00D1C0B24FF00008230784
:106420002BD5702A07D0DDF820C08CF0100C5CEA68
:106430000B0C05D00EE040238DF82430012308E03A
:1064400050EA010306D030238DF824308DF8252042
:1064500002239846DDF820C08CF0080C5CEA0B0C97
:106460000BD150EA010301D1630706D530238DF823
:1064700024304FF00108A9F10109582A04D038A2AC
:106480000B9208AA0A920BE03AA2F9E75B46089A37
:10649000FCF76AFE0B9B9B5C0A9A521E0A921370D1
:1064A00050EA0102F2D10A98ADEB000000F1200B96
:1064B000600702D524F4803401E04FF00109D9458A
:1064C00002DDA9EB0B0000E0002000EB0B014144D2
:1064D0000890AAEB010AE00306D4DDE90F23214668
:1064E000504600F063F806444FF0000908E009A99F
:1064F00011F80900DDE90F12904709F10109761C36
:10650000C145F4DBE0030CD5DDE90F2321465046FD
:1065100000F04CF8064404E0DDE90F12302090470B
:10652000761C0899481E08900029F5DC08E00A98B6
:106530000A990078491C0A91DDE90F129047761CF0
:10654000BBF10001ABF1010BF1DC21465046DDE966
:106550000F2300F019F806446D1C1BE60928010002
:1065600030313233343536373839616263646566C9
:10657000000000003031323334353637383941428B
:1065800043444546000000002DE9F0410446002543
:106590001E461746880404D405E039462020B0473B
:1065A0006D1C641EF9D52846BDE8F0812DE9F04147
:1065B000044600251E469046C80301D5302700E05A
:1065C0002027880404D505E041463846B0476D1CB5
:1065D000641EF9D52846BDE8F081000010B56FF0C3
:1065E0000400FFF7C5FB094809490068B0FBF1F05A
:1065F000C1B2084801EB41020170C2EBC1114FF674
:10660000FF7202EAC101418010BD000000000020BD
:1066100000127A00140000200B49498848434FF0CB
:10662000E021486100228A61086940F001000861A8
:106630000869C30701D0C003FAD5086920F001003A
:1066400008618A6170470000140000200B49097836
:1066500048434FF0E021486100228A61086940F018
:10666000010008610869C30701D0C003FAD50869B1
:1066700020F0010008618A617047000014000020CA
:1066800004490A885206FCD5024AC1B2121D118083
:10669000704700000038014010B51FA0FFF74CFD07
:1066A0001E48FFF749FD1EA0FFF746FD2C48FFF7E7
:1066B00043FD2C48FFF740FD2BA0FFF73DFD39A01F
:1066C000FFF73AFD3DA0FFF737FD42A0FFF734FD8D
:1066D00047A0FFF731FD4DA0FFF72EFD59A0FFF7B2
:1066E0002BFD66A0FFF728FD71A0FFF725FD79A01F
:1066F000FFF722FD80A0FFF71FFD8AA0FFF71CFD1A
:106700008FA0FFF719FD94A0FFF716FDBDE810401C
:106710009EA0FFF711BD00000D0A00006076000882
:10672000CDA8B9FD55534D415254C4E3BFC9D2D48D
:10673000CAB9D3C3B4AEBFDAD6FACAD6B5F7D3C393
:10674000B9CCBCFEC0EFC3E6B5C4C8CEBACEBAAFB2
:10675000CAFD2CB2A2D6B4D0D02E0D0A0000000083
:10676000EC760008A476000855534D415254D3D01E
:106770003132B8F6CFB5CDB3C3FCC1EE28BAF3358C
:10678000B8F6D6F7D2AAD3C9426F6F744C6F616462
:106790006572BACD417070B9B2CDACD6A7B3D62967
:1067A0003A0D0A003F3A202020202020BBF1C8A14A
:1067B000B0EFD6FAD0C5CFA20D0A000068656C70A4
:1067C0003A202020BBF1C8A1B0EFD6FAD0C5CFA2A5
:1067D0000D0A00006C6973743A202020BFC9D3C32E
:1067E000B5C4BAAFCAFDC1D0B1ED0D0A0A000000B0
:1067F00069643A2020202020BFC9D3C3BAAFCAFDA4
:10680000B5C44944C1D0B1ED0D0A0A006865783AB3
:1068100020202020B2CECAFD3136BDF8D6C6CFD456
:10682000CABE2CBAF3B8FABFD5B8F12BCAFDD7D679
:10683000BCB4D6B4D0D0BDF8D6C6D7AABBBB0D0A5F
:106840000A0000006465633A20202020B2CECAFD11
:106850003130BDF8D6C6CFD4CABE2CBAF3B8FABF11
:10686000D5B8F12BCAFDD7D6BCB4D6B4D0D0BDF8BC
:10687000D6C6D7AABBBB0D0A0A00000072756E749B
:10688000696D653A312CBFAAC6F4BAAFCAFDD4CB44
:10689000D0D0BCC6CAB13B302CB9D8B1D5BAAFCA7A
:1068A000FDD4CBD0D0BCC6CAB13B0D0A0A00000053
:1068B0007570646174653A20CDA8B9FD426F6F743C
:1068C0004C6F61646572CFC2D4D8B9CCBCFE0D0ADE
:1068D0000000000075706C6F61643A20CDA8B9FDAE
:1068E000426F6F744C6F61646572C9CFB4ABB9CC41
:1068F000BCFE0D0A0000000065726173653A20203D
:10690000B2C1B3FDB3FD426F6F746C6F61646572A9
:10691000D6AECDE2B5C4466C617368C7F8D3F20D4C
:106920000A0000006D656E753A202020CCF8D7AAC9
:10693000BBD8494150204D656E750D0A000000001E
:1069400072756E6170703A20D4CBD0D05573657279
:10695000204170700D0A0000C7EBB0B4D5D5B3CCA0
:10696000D0F2B1E0D0B4B8F1CABDCAE4C8EBBAAF56
:10697000CAFDC3FBBCB0B2CECAFDB2A2D2D4BBD852
:10698000B3B5BCFCBDE1CAF82E0D0A002D2D2D2D8E
:106990002D2D2D2D2D2D2D2D2D2D2D2D2D2D2D2D27
:1069A0002D2D2D2D2D2D2D2D2D2D2D2D2D2D2D2D17
:1069B0002D2D2D2D2D2D2D2D2D2D2D2D200D0A0A7A
:1069C000000000000024FCF72FFDFFF707FEFFF793
:1069D0009BF84FF4E13000F039F8FFF76BF8FCF763
:1069E0001FFE0F480F490068B0FBF1F00E49C0B21E
:1069F000496888470DA0FFF79FFB124D641CA4B2A5
:106A00003220FFF709FE0A2CF8D1D5F8940128B1FD
:106A10005FF00000C5F894010024EFE70120F9E7DA
:106A20000000002040420F00780000200D0A20CA1C
:106A3000E4C8EB3A68656C70B2E9D1AFD6B8C1EE84
:106A40000D0A00000080214200687047F0B505463D
:106A500087B0012144F20400FFF7D4F8224E3046FB
:106A6000FFF79CFA7015ADF8100003248DF8124062
:106A700018201E4F8DF8130004A93846FCF780FC3F
:106A80003015ADF8100004208DF8130004A9384625
:106A9000FCF776FC25208DF814008DF815408DF854
:106AA000164001208DF8170005A8FFF731F80020E7
:106AB000ADF80400ADF80600ADF80800ADF80C0024
:106AC0000C20ADF80A00009569463046FFF7D8FA69
:106AD000012240F225513046FFF7B9FA0121304634
:106AE000FFF752FA07B0F0BD00380140000801403E
:106AF00070B596B0054614AB01AA03A900F0DAF907
:106B0000002824D18DF84C001D4C042615E000BF50
:106B1000216806EBC00014AB08586A460BA900F0C8
:106B2000C9F9002813D103A90BA800F0FAFB80B122
:106B30009DF84C00401C8DF84C00217DC0B2814274
:106B4000E6D8207D9DF84C1088420ED1042016B066
:106B500070BD9DF800009DF80410884201D9022004
:106B6000F5E79DF84C00A075EBE713A9284600F067
:106B700059FA0028EBD19DF84C0060750020E6E73B
:106B8000780000202DE9F0417F4C9AB0A57D207D52
:106B9000A8427DD90421206801EBC50119AB4058FA
:106BA00010AA11A900F086F911A978A0FFF7C4FA7C
:106BB00000270DF1180833E0208B0121B94008426D
:106BC00017D0222173A0FFF7B7FA384600F094FAE5
:106BD000011971A02431FFF7AFFA22216DA0FFF750
:106BE000ABFA384600F088FA2044243048F82700F1
:106BF0000CE0384600F080FA2044416A48F827103B
:106C0000E07D08B365A000BFFFF796FA9DF840004D
:106C1000401E874202D063A0FFF78EFA7F1CFFB2AE
:106C20009DF840008742C7D35FA0FFF785FA00F0C8
:106C3000A5FA607D0B2814D2DFE800F0080D31388A
:106C40004048525E6B78880058A0DDE7206850F815
:106C50003500804704E0206850F8351006988847D2
:106C6000064600F05BFA9DF8640001287DD050A034
:106C7000FFF762FA94F8EC0000280DD0D4F8F01079
:106C80000A20B1FBF0F200FB1212B1FBF0F100E0C0
:106C900002E048A0FFF750FA1AB0BDE8F081206882
:106CA00050F83520DDE906019047D9E7206806AEA7
:106CB00050F8353096E807009847D1E7206806AECF
:106CC00050F8355096E80F00A847C9E70A98009099
:106CD000206806AE50F8355096E80F00A847BFE789
:106CE000DDE90A01CDE90001206806AE50F8355013
:106CF00096E80F00A847B3E70AAB06AE93E8070093
:106D00008DE80700206850F8355096E80F00A84736
:106D1000A6E70AAE96E80F008DE80F00206806AEE1
:106D200050F8355096E80F00A84799E70BAE96E863
:106D30000F0001AE86E80F000A980090206806AEAA
:106D400050F8355096E80F00A84789E70CAE96E852
:106D50000F0002AE86E80F00DDE90A01CDE900016F
:106D6000206806AE50F8355000E003E096E80F00CA
:106D7000A84775E7E07D314618B116A0FFF7DCF9AA
:106D800078E717A0FAE70000780000200D0A2573C5
:106D900028000000256300002573000030582558A6
:106DA000000000002C00000029000000256C750088
:106DB0003B0D0A0046756E6374696F6E2052756EE6
:106DC0002054696D653A25642E2531646D730D0A72
:106DD000000000003D305825583B0D0A000000001F
:106DE0003D256C753B0D0A00F0B5044600200746B2
:106DF0000646054623782C2B03D0292B04D01BB143
:106E000003E015B9012700E065B31EB1222B27D09E
:106E100047BB2BE0A3F1300CBCF1090F15D9A3F14E
:106E2000610CBCF1050F10D9A3F1410CBCF1050FA9
:106E30000BD9582B09D0782B07D0222B0CD0202B24
:106E40001DD02C2B1BD0FF260CE05FB9612B00D38B
:106E5000203B01F8013B12E027B9012635460EE040
:106E6000002567B100230B701670F0BD3DB15C2B9F
:106E700002D1401CC0B2641C237801F8013B401CC5
:106E8000C0B2641CB6E730B5002515700AE001F801
:106E9000014B1478401C641CE4B214709C4201D372
:106EA000012030BD0478202C01D0002CEFD10D70D2
:106EB000002030BD2DE9FF4F002582B098460446E2
:106EC0002F462E464FF0010BAA462A46A94615E04A
:106ED000202910D002F07F03052B0CD202B98022AA
:106EE00002F07F03042B01D12A290AD1521C0DF88C
:106EF0000310D2B201E0852A04D0401C0178002999
:106F0000E6D162B102F07F0244A10DF8029068461A
:106F100000F007FA38B1012188F8001000224FF084
:106F20000008234614E088F80090F7E708F1010014
:106F300000F0FF0813F8010F202801D02A2807D1FC
:106F4000184600F093F9282802D02A2800D0474696
:106F50001878282801D00028E8D10FB13C44641CDF
:106F600000273946207888B1282804D0292806D05F
:106F700022280FD010E079B96D1CEDB20CE059B9A0
:106F800025B16D1E15F0FF0501D00CE00127012E83
:106F900032D039E049B100214DB12C280FD0202842
:106FA0001FD028281DD07AB117E00121F4E720284E
:106FB00020D0039B18700398401C03901AE0521CC9
:106FC0004FF0010BD2B20CE0BAF1050F05D20DF86B
:106FD0000A000AF1010000F0FF0A0BF1010000F0C5
:106FE000FF0B012D06D1BBF1020F03D1761C4FF030
:106FF000030BF6B2641CB5E70DF80A9007A16846CA
:1070000000F08FF900B9002604980670039880F804
:10701000009006B03846BDE8F08F0000766F6964D6
:10702000000000002DE9F04300248946314DB5B041
:10703000214622466B18491CC9B29A760A29F9D30F
:1070400003E000BF10F8011F91B101782829F9D1A0
:10705000461C012733AA69463046FFF7C5FE0644A1
:107060009DF8CC0040B1012824D0FF2839D10BE095
:10707000012035B0BDE8F0839DF8000080B334A94D
:10708000684600F0FBF808B10220F2E7204600F065
:1070900033F8284434994162288B07FA04F1884375
:1070A0002883042029198876641CE4B20A2C18D994
:1070B0000320DEE7684600F049F900F101082046A8
:1070C00000F01AF841196846243100F036F9288B8F
:1070D00007FA04F108432919288381F81A80E3E7A5
:1070E000FFE73078292801D00028B3D189F8004083
:1070F0000020BEE778000020024610B500200146BF
:10710000054B05E05C18491CA47EC9B22044C0B2FE
:107110009142F7D310BD0000780000204FF080406E
:10712000018ACA070649D1F8F02004D04FF6FF7350
:107130001A44C1F8F020808C1044C1F8F000704768
:107140007800002000EBC00101EB00104FF0FF3190
:1071500001EB800010B581B24FF47A70FEF7B4FEF7
:1071600001490120C87510BD7800002002460120A9
:1071700000E05043491EC9B2FBD270474FF0804037
:10718000018A21F0010101824FF6FF718185002102
:1071900081840248C0F8F010704700007800002099
:1071A0002DE9F041174D2888010429D51649C0B2B0
:1071B000164F00260E54B9681348884704000FD0B4
:1071C000114800F0CDF8012801D0040017D0012C9F
:1071D00009D0022C0CD0032C0CD0042C0FD10BE0C6
:1071E000F86880470BE00AA0FEF7A6FF0CA004E0B9
:1071F00010A002E013A000E016A0FEF79DFF2E8075
:10720000BDE8F081180000207A01002078000020FD
:1072100020BAAFCAFDB4EDCEF3210D0A0000000084
:1072200020CAE4C8EB3A68656C70B2E9D1AF0D0AC8
:107230000000000020B2CECAFDB4EDCEF3210D0A4D
:107240000000000020B2CECAFDCCABB6E0210D0A92
:107250000000000020CEB4D5D2B5BDC6A5C5E4B5AA
:10726000C4BAAFCAFD210D0A0000000010F8011FCA
:10727000202901D10028F9D1C8B270472DE9F04189
:107280000E4600244FF00A08014634600A78A2F145
:107290003003092B0DD9113B052B0AD9582A05D0EB
:1072A00012F0FF0F0DD00120BDE8F081012C02D0BB
:1072B000F9E7412A01D34FF01008641CE4B2491CDD
:1072C000E4E70546B8F1100F01D084B112E0032CB9
:1072D00001D20220E8E72878302802D168785828BF
:1072E00001D00320E0E7A41EE4B2AD1C01E00420BD
:1072F000DAE70CB1641EE4B2287807463038092872
:1073000001D8074600E0373F21464046FFF72EFFF1
:10731000316807FB0010306015F8010F0028E8D134
:10732000C2E702780B789A4201D00120704712B16F
:10733000401C491CF5E70020704702780A7002786B
:10734000002A02D0401C491CF7E770470021027850
:107350001AB1491CC9B2401CF9E708467047000041
:10736000F0B58DB004461E236A4602A9FFF78BFDD7
:10737000019000286FD19DF80000271800266F4C5F
:107380008DF800609DF8000054F8201002A8FFF767
:10739000C8FF38B19DF80000401CC0B28DF8000055
:1073A0000D28EFD39DF800000425654C0D2852D21E
:1073B000DFE800F007070A2B527190B0B2B5B8BBF6
:1073C000BD00FFF769F91DE05EA0FEF7B5FE5EA007
:1073D000FEF7B2FE8DF800600CE000BF216805EBFF
:1073E000C000095868A0FEF7A7FE9DF80000401CE9
:1073F0008DF80000217D9DF800008142EED851A05B
:10740000FEF79AFE00200DB0F0BD4EA0FEF794FEF0
:107410005FA0FEF791FE8DF8006016E0216805EB95
:10742000C0000BAB08580AAA02A9FFF743FD9DF85C
:107430000010206850F8312002A965A0FEF77CFEFC
:107440009DF80000401C8DF80000217D9DF8000093
:107450008142E3D8D3E76FE03AA0FEF76DFE6A46BB
:1074600002A93846FFF7C0FC9DF80000002843D170
:1074700001A902A8FFF702FF8DF8000010B104284F
:107480003AD102E057A001991CE059A0FEF754FE42
:107490000120E075B3E72BA0FEF74EFE6A4602A975
:1074A0003846FFF7A1FC9DF8000028BB01A902A8FF
:1074B000FFF7E4FE8DF8000010B104281CD104E0B1
:1074C00050A00199FEF738FE99E751A0FEF734FE6F
:1074D000E67594E71BA0FEF72FFE6A4602A9384620
:1074E000FFF782FC9DF8000030B901A902A8FFF760
:1074F000C5FE8DF8000008B1022084E7019810F065
:10750000FF0084F8EC0001D046A000E04CA0FEF79C
:1075100013FE74E7FEF742FB4EF6EE6009E04DF60F
:10752000DD5006E04CF6CC4003E0002001E045F6DB
:107530005A20FBF787FFEDE7012064E734000020C5
:10754000780000200D0A00002D2D2D2D2D2D2D2D24
:107550002D2D2D2D2D2D2D2D2D2D2D2D2D2D2D2D5B
:107560002DBAAFCAFDC7E5B5A52D2D2D2D2D2D2D7D
:107570002D2D2D2D2D2D2D2D2D2D2D2D2D2D2D2D3B
:107580002D2D2D2D200D0A0025730D0A0000000061
:107590002D2D2D2D2D2D2D2D2D2D2D2D2D2D2D2D1B
:1075A0002D2D2D2D2D2D2D2D2DBAAFCAFD20494469
:1075B000202D2D2D2D2D2D2D2D2D2D2D2D2D2D2D08
:1075C0002D2D2D2D2D2D2D2D2D2D2D2D200D0A0068
:1075D00025732069642069733A0D0A3058253038C4
:1075E000580D0A004845583A305825580D0A0000F1
:1075F0003136BDF8D6C6B2CECAFDCFD4CABE210D33
:107600000A0000004445433A256C750D0A0000004D
:107610003130BDF8D6C6B2CECAFDCFD4CABE210D18
:107620000A00000052756E2054696D652043616C3C
:1076300063756C6174696F6E204F4E0D0A00000017
:1076400052756E2054696D652043616C63756C6181
:1076500074696F6E204F46460D0A00000160704746
:107660002D2D2D2D2D2D2D2D2D2D2D2D2D2D2D2D4A
:107670002D2D2D2D2D2D2D2D55534D415254205650
:1076800020302E312E342D2D2D2D2D2D2D2D2D2D27
:107690002D2D2D2D2D2D2D2D2D2D2D2D200D0A0A8D
:1076A00000000000BFDAB5D8D6B7B5C8D7F7CEAA64
:1076B000B2CECAFD292CB5A5B8F6BAAFCAFDD7EE31
:1076C000B6E0D6A7B3D63130B8F6CAE4C8EBB2CE2E
:1076D000CAFD2CB2A2D6A7B3D6BAAFCAFDB7B5BB06
:1076E000D8D6B5CFD4CABE2E0D0A0A00C4E3BFC98E
:1076F000D2D4CBE6D2E2B8FCB8C4BAAFCAFDB5C4A6
:10770000CAE4C8EBB2CECAFD28D6A7B3D6CAFDD705
:10771000D62831302F3136BDF8D6C629A1A2D7D60A
:10772000B7FBB4AEA1A2BAAFCAFDC8EB0D0A000008
:107730003F0000006465630075706C6F6164000059
:107740006964000072756E74696D650065726173BD
:1077500065000000757064617465000068656C7098
:107760000000000072756E617070000072657365D4
:10777000740000006C697374000000006D656E7524
:107780000000000068657800766F69642077726990
:1077900074655F6164647228753332206164647259
:1077A0002C7533322076616C29000000753332204D
:1077B000726561645F61646472287533322061644C
:1077C00064722900E4770008000000206C010000CA
:1077D0002E320008487800086C010020DC0400000C
:1077E000686100081184A24A04C00901020304066A
:1077F0000708096D020406081C69201330771B086E
:107800005C041A74041A40041A84041A34041A44D6
:10781000041A6C041A54041A38041A4C041A7C040E
:107820001A640413496A1B08AC08135D761B0888A8
:10783000082268142045711B08F11813856B1B087A
:08784000A10C1A026701DC0033
:04000005080031318D
:00000001FF
